:100000000C942A000C9447000C9447000C94470071
:100010000C9447000C9447000C9447000C94470044
:100020000C9447000C9447000C9447000C94470034
:100030000C9447000C9447000C9447000C94470024
:100040000C9447000C9447000C9447000C94470014
:100050000C94470011241FBECFE5D8E0DEBFCDBF12
:1000600010E0A0E6B0E0E6E8F8E002C005900D92EE
:10007000A638B107D9F720E0A6E8B0E001C01D928C
:10008000A738B207E1F70E9418010C9441040C94C0
:100090000000969A00C096980895CF93DF93D82FCA
:1000A000662311F0949A01C09498959881B38F605B
:1000B00081BBC2B3C07F8D2F82958F708C2B82BB8A
:1000C0000E944900DF70DC2BD2BB0E944900CF6048
:1000D000C2BBDF91CF910895882311F0949A01C09B
:1000E0009498959A81B3807F81BB969A00C090B313
:1000F000969800C0969A00C020B32F70892F8295E1
:10010000807F9698822B089580E00E946C0088235F
:10011000DCF388E090E00197F1F780E00E946C004A
:100120000895CF93C82F0E94840060E08C2F0E9416
:100130004D00CF910895611104C080580E94910034
:10014000089580540E949100089581E00E949100DA
:10015000089582E00E9491000895CF93C82F0E94D5
:100160008400CA3049F4803410F080E001C080E49B
:1001700080580E94910004C061E08C2F0E944D00C5
:10018000CF910895CF93DF93EC012196FC018081FC
:10019000882329F00E94AD0089918111FBCFDF9166
:1001A000CF9108951F93CF93DF93182F81B38F675B
:1001B00081BB80E09AEF0197F1F7919A909A0E94A3
:1001C000490080E09EE40197F1F70E944900C0E0F9
:1001D000D1E0CE010197F1F70E944900CE010197CD
:1001E000F1F790980E9449002197F1F788E20E9468
:1001F000910088E00E9491000E94A50086E00E9484
:100200009100812F0E949100DF91CF911F9108955D
:1002100080E487B987E886B9089597B1987F877099
:10022000892B87B9369A3699FECF84B195B1089556
:10023000CF93DF93CDB7DEB72A970FB6F894DEBF22
:100240000FBECDBF8FEF87BB84BB0E9408018EE03D
:100250000E94D2000E94A50060E080E00E949B0006
:100260008FE19EE40197F1F700C000006894BB2481
:10027000B1F880E00E940D01BC0180E090E00E9496
:10028000060327ED33EA40E050E40E945E020E943C
:10029000D0026B017C018B0160E080E00E949B003A
:1002A0004AE050E0BE016F5F7F4FC6010E9401042B
:1002B00080E690E00E94C200CE0101960E94C2003A
:1002C00060E087E00E949B0086E690E00E94C2000A
:1002D00060E089E00E949B00B601DD0C880B990B61
:1002E0000E94080326E636E646EE5FE30E9494038A
:1002F00020E030E040E052E40E94F2010E94D0028F
:10030000DC01CB014AE050E0BE016F5F7F4F0E94ED
:100310000104CE0101960E94C20060E08CE00E94C0
:100320009B008FE690E00E94C2009FEF21EE84E0E8
:10033000915020408040E1F700C00000809186008D
:10034000811135C015BA18BA0E94A5000E94A900F3
:1003500061E080E00E949B0088E690E00E94C2007D
:10036000043211058CF081E0809386000E94A50084
:100370000E94A90061E080E00E949B0081E790E07C
:100380000E94C200B5BA18BA0F30110584F4B092B9
:1003900086000E94A5000E94A90061E080E00E9402
:1003A0009B008BE790E00E94C20015BAB8BA80911A
:1003B0008600813041F4093111050CF05ACF1092BA
:1003C000860015BA18BA80918600823009F051CFA4
:1003D0000F3111050CF44DCF1092860015BA18BAE2
:1003E00048CF5058BB27AA270E9409020C945A03F1
:1003F0000E944C0338F00E94530320F039F49F3FD1
:1004000019F426F40C9449030EF4E095E7FB0C94E0
:100410004303E92F0E946B0358F3BA17620773076F
:100420008407950720F079F4A6F50C948D030EF45B
:10043000E0950B2EBA2FA02D0B01B90190010C01F4
:10044000CA01A0011124FF27591B99F0593F50F40C
:10045000503E68F11A16F040A22F232F342F442764
:10046000585FF3CF469537952795A795F04053955C
:10047000C9F77EF41F16BA0B620B730B840BBAF02C
:100480009150A1F0FF0FBB1F661F771F881FC2F797
:100490000EC0BA0F621F731F841F48F487957795AB
:1004A0006795B795F7959E3F08F0B0CF9395880F65
:1004B00008F09927EE0F9795879508950E9472028C
:1004C0000C945A030E94530358F00E944C0340F0CE
:1004D00029F45F3F29F00C94430351110C948E03CF
:1004E0000C9449030E946B0368F39923B1F35523DD
:1004F00091F3951B550BBB27AA2762177307840737
:1005000038F09F5F5F4F220F331F441FAA1FA9F3CC
:1005100035D00E2E3AF0E0E832D091505040E695BA
:10052000001CCAF72BD0FE2F29D0660F771F881F1B
:10053000BB1F261737074807AB07B0E809F0BB0B0E
:10054000802DBF01FF2793585F4F3AF09E3F510522
:1005500078F00C9443030C948E035F3FE4F3983ED1
:10056000D4F3869577956795B795F7959F5FC9F70B
:10057000880F911D9695879597F90895E1E0660F8C
:10058000771F881FBB1F621773078407BA0720F005
:10059000621B730B840BBA0BEE1F88F7E09508956E
:1005A0000E94D7026894B1110C948E0308950E94A2
:1005B000730388F09F5798F0B92F9927B751B0F07F
:1005C000E1F0660F771F881F991F1AF0BA95C9F7D7
:1005D00014C0B13091F00E948D03B1E008950C94E5
:1005E0008D03672F782F8827B85F39F0B93FCCF398
:1005F000869577956795B395D9F73EF49095809554
:10060000709561957F4F8F4F9F4F0895E89409C073
:1006100097FB3EF490958095709561957F4F8F4F35
:100620009F4F9923A9F0F92F96E9BB279395F6954B
:10063000879577956795B795F111F8CFFAF4BB0FC9
:1006400011F460FF1BC06F5F7F4F8F4F9F4F16C02D
:10065000882311F096E911C0772321F09EE8872FB7
:10066000762F05C0662371F096E8862F70E060E073
:100670002AF09A95660F771F881FDAF7880F9695EC
:10068000879597F9089597F99F6780E870E060E093
:1006900008959FEF80EC089500240A94161617061B
:1006A00018060906089500240A9412161306140663
:1006B00005060895092E0394000C11F4882352F0C6
:1006C000BB0F40F4BF2B11F460FF04C06F5F7F4F7E
:1006D0008F4F9F4F089557FD9058440F551F59F065
:1006E0005F3F71F04795880F97FB991F61F09F3F1F
:1006F00079F087950895121613061406551FF2CF48
:100700004695F1DF08C0161617061806991FF1CF97
:1007100086957105610508940895E894BB276627BE
:100720007727CB0197F908950E94A7030C945A03E9
:100730000E944C0338F00E94530320F0952311F0DF
:100740000C9443030C94490311240C948E030E94CF
:100750006B0370F3959FC1F3950F50E0551F629F97
:10076000F001729FBB27F00DB11D639FAA27F00D0A
:10077000B11DAA1F649F6627B00DA11D661F829F31
:100780002227B00DA11D621F739FB00DA11D621F16
:10079000839FA00D611D221F749F3327A00D611D33
:1007A000231F849F600D211D822F762F6A2F112415
:1007B0009F5750409AF0F1F088234AF0EE0FFF1F48
:1007C000BB1F661F771F881F91505040A9F79E3F9F
:1007D000510580F00C9443030C948E035F3FE4F3C7
:1007E000983ED4F3869577956795B795F795E795F5
:1007F0009F5FC1F7FE2B880F911D9695879597F9FE
:1008000008954532510520F4423010F00C940C0448
:10081000FB011082CB010895BB274A3031F49923A4
:1008200022F4BDE2909581959F4F0C941804BB274C
:10083000FB015527AA27880F991FAA1FA41710F09C
:10084000A41B83955051B9F7A05DAA3308F0A95DA8
:10085000A193009779F7B111B1931192CB010C9448
:100860003104DC01FC01672F71917723E1F73297A6
:1008700004C07C916D9370836291AE17BF07C8F37B
:060880000895F894FFCF7B
:1008860054656D703D004300426F7468204F4646C4
:1008960000436F6F6C6572204F4E0048656174654A
:0608A60072204F4E00001D
:00000001FF
